{
  "address": "0x2e7EAed1091093ECeEeDB837458Fd0b2697CF3B4",
  "abi": [
    {
      "inputs": [],
      "stateMutability": "nonpayable",
      "type": "constructor"
    },
    {
      "anonymous": false,
      "inputs": [
        {
          "indexed": false,
          "internalType": "address",
          "name": "previousAdmin",
          "type": "address"
        },
        {
          "indexed": false,
          "internalType": "address",
          "name": "newAdmin",
          "type": "address"
        }
      ],
      "name": "AdminChanged",
      "type": "event"
    },
    {
      "anonymous": false,
      "inputs": [
        {
          "indexed": true,
          "internalType": "address",
          "name": "owner",
          "type": "address"
        },
        {
          "indexed": true,
          "internalType": "address",
          "name": "spender",
          "type": "address"
        },
        {
          "indexed": false,
          "internalType": "uint256",
          "name": "value",
          "type": "uint256"
        }
      ],
      "name": "Approval",
      "type": "event"
    },
    {
      "anonymous": false,
      "inputs": [
        {
          "indexed": true,
          "internalType": "address",
          "name": "beacon",
          "type": "address"
        }
      ],
      "name": "BeaconUpgraded",
      "type": "event"
    },
    {
      "anonymous": false,
      "inputs": [
        {
          "indexed": false,
          "internalType": "uint8",
          "name": "version",
          "type": "uint8"
        }
      ],
      "name": "Initialized",
      "type": "event"
    },
    {
      "anonymous": false,
      "inputs": [
        {
          "indexed": true,
          "internalType": "bytes32",
          "name": "role",
          "type": "bytes32"
        },
        {
          "indexed": true,
          "internalType": "bytes32",
          "name": "previousAdminRole",
          "type": "bytes32"
        },
        {
          "indexed": true,
          "internalType": "bytes32",
          "name": "newAdminRole",
          "type": "bytes32"
        }
      ],
      "name": "RoleAdminChanged",
      "type": "event"
    },
    {
      "anonymous": false,
      "inputs": [
        {
          "indexed": true,
          "internalType": "bytes32",
          "name": "role",
          "type": "bytes32"
        },
        {
          "indexed": true,
          "internalType": "address",
          "name": "account",
          "type": "address"
        },
        {
          "indexed": true,
          "internalType": "address",
          "name": "sender",
          "type": "address"
        }
      ],
      "name": "RoleGranted",
      "type": "event"
    },
    {
      "anonymous": false,
      "inputs": [
        {
          "indexed": true,
          "internalType": "bytes32",
          "name": "role",
          "type": "bytes32"
        },
        {
          "indexed": true,
          "internalType": "address",
          "name": "account",
          "type": "address"
        },
        {
          "indexed": true,
          "internalType": "address",
          "name": "sender",
          "type": "address"
        }
      ],
      "name": "RoleRevoked",
      "type": "event"
    },
    {
      "anonymous": false,
      "inputs": [
        {
          "indexed": true,
          "internalType": "address",
          "name": "from",
          "type": "address"
        },
        {
          "indexed": true,
          "internalType": "address",
          "name": "to",
          "type": "address"
        },
        {
          "indexed": false,
          "internalType": "uint256",
          "name": "value",
          "type": "uint256"
        }
      ],
      "name": "Transfer",
      "type": "event"
    },
    {
      "anonymous": false,
      "inputs": [
        {
          "indexed": true,
          "internalType": "address",
          "name": "implementation",
          "type": "address"
        }
      ],
      "name": "Upgraded",
      "type": "event"
    },
    {
      "inputs": [],
      "name": "DEFAULT_ADMIN_ROLE",
      "outputs": [
        {
          "internalType": "bytes32",
          "name": "",
          "type": "bytes32"
        }
      ],
      "stateMutability": "view",
      "type": "function"
    },
    {
      "inputs": [],
      "name": "UPGRADER_ROLE",
      "outputs": [
        {
          "internalType": "bytes32",
          "name": "",
          "type": "bytes32"
        }
      ],
      "stateMutability": "view",
      "type": "function"
    },
    {
      "inputs": [
        {
          "internalType": "address",
          "name": "owner",
          "type": "address"
        },
        {
          "internalType": "address",
          "name": "spender",
          "type": "address"
        }
      ],
      "name": "allowance",
      "outputs": [
        {
          "internalType": "uint256",
          "name": "",
          "type": "uint256"
        }
      ],
      "stateMutability": "view",
      "type": "function"
    },
    {
      "inputs": [
        {
          "internalType": "address",
          "name": "spender",
          "type": "address"
        },
        {
          "internalType": "uint256",
          "name": "amount",
          "type": "uint256"
        }
      ],
      "name": "approve",
      "outputs": [
        {
          "internalType": "bool",
          "name": "",
          "type": "bool"
        }
      ],
      "stateMutability": "nonpayable",
      "type": "function"
    },
    {
      "inputs": [
        {
          "internalType": "address",
          "name": "account",
          "type": "address"
        }
      ],
      "name": "balanceOf",
      "outputs": [
        {
          "internalType": "uint256",
          "name": "",
          "type": "uint256"
        }
      ],
      "stateMutability": "view",
      "type": "function"
    },
    {
      "inputs": [
        {
          "internalType": "uint256",
          "name": "amount",
          "type": "uint256"
        }
      ],
      "name": "burn",
      "outputs": [],
      "stateMutability": "nonpayable",
      "type": "function"
    },
    {
      "inputs": [
        {
          "internalType": "address",
          "name": "account",
          "type": "address"
        },
        {
          "internalType": "uint256",
          "name": "amount",
          "type": "uint256"
        }
      ],
      "name": "burnFrom",
      "outputs": [],
      "stateMutability": "nonpayable",
      "type": "function"
    },
    {
      "inputs": [],
      "name": "decimals",
      "outputs": [
        {
          "internalType": "uint8",
          "name": "",
          "type": "uint8"
        }
      ],
      "stateMutability": "view",
      "type": "function"
    },
    {
      "inputs": [
        {
          "internalType": "address",
          "name": "spender",
          "type": "address"
        },
        {
          "internalType": "uint256",
          "name": "subtractedValue",
          "type": "uint256"
        }
      ],
      "name": "decreaseAllowance",
      "outputs": [
        {
          "internalType": "bool",
          "name": "",
          "type": "bool"
        }
      ],
      "stateMutability": "nonpayable",
      "type": "function"
    },
    {
      "inputs": [
        {
          "internalType": "bytes32",
          "name": "role",
          "type": "bytes32"
        }
      ],
      "name": "getRoleAdmin",
      "outputs": [
        {
          "internalType": "bytes32",
          "name": "",
          "type": "bytes32"
        }
      ],
      "stateMutability": "view",
      "type": "function"
    },
    {
      "inputs": [
        {
          "internalType": "bytes32",
          "name": "role",
          "type": "bytes32"
        },
        {
          "internalType": "address",
          "name": "account",
          "type": "address"
        }
      ],
      "name": "grantRole",
      "outputs": [],
      "stateMutability": "nonpayable",
      "type": "function"
    },
    {
      "inputs": [
        {
          "internalType": "bytes32",
          "name": "role",
          "type": "bytes32"
        },
        {
          "internalType": "address",
          "name": "account",
          "type": "address"
        }
      ],
      "name": "hasRole",
      "outputs": [
        {
          "internalType": "bool",
          "name": "",
          "type": "bool"
        }
      ],
      "stateMutability": "view",
      "type": "function"
    },
    {
      "inputs": [
        {
          "internalType": "address",
          "name": "spender",
          "type": "address"
        },
        {
          "internalType": "uint256",
          "name": "addedValue",
          "type": "uint256"
        }
      ],
      "name": "increaseAllowance",
      "outputs": [
        {
          "internalType": "bool",
          "name": "",
          "type": "bool"
        }
      ],
      "stateMutability": "nonpayable",
      "type": "function"
    },
    {
      "inputs": [],
      "name": "initialize",
      "outputs": [],
      "stateMutability": "nonpayable",
      "type": "function"
    },
    {
      "inputs": [],
      "name": "name",
      "outputs": [
        {
          "internalType": "string",
          "name": "",
          "type": "string"
        }
      ],
      "stateMutability": "view",
      "type": "function"
    },
    {
      "inputs": [],
      "name": "proxiableUUID",
      "outputs": [
        {
          "internalType": "bytes32",
          "name": "",
          "type": "bytes32"
        }
      ],
      "stateMutability": "view",
      "type": "function"
    },
    {
      "inputs": [
        {
          "internalType": "bytes32",
          "name": "role",
          "type": "bytes32"
        },
        {
          "internalType": "address",
          "name": "account",
          "type": "address"
        }
      ],
      "name": "renounceRole",
      "outputs": [],
      "stateMutability": "nonpayable",
      "type": "function"
    },
    {
      "inputs": [
        {
          "internalType": "bytes32",
          "name": "role",
          "type": "bytes32"
        },
        {
          "internalType": "address",
          "name": "account",
          "type": "address"
        }
      ],
      "name": "revokeRole",
      "outputs": [],
      "stateMutability": "nonpayable",
      "type": "function"
    },
    {
      "inputs": [
        {
          "internalType": "bytes4",
          "name": "interfaceId",
          "type": "bytes4"
        }
      ],
      "name": "supportsInterface",
      "outputs": [
        {
          "internalType": "bool",
          "name": "",
          "type": "bool"
        }
      ],
      "stateMutability": "view",
      "type": "function"
    },
    {
      "inputs": [],
      "name": "symbol",
      "outputs": [
        {
          "internalType": "string",
          "name": "",
          "type": "string"
        }
      ],
      "stateMutability": "view",
      "type": "function"
    },
    {
      "inputs": [],
      "name": "totalSupply",
      "outputs": [
        {
          "internalType": "uint256",
          "name": "",
          "type": "uint256"
        }
      ],
      "stateMutability": "view",
      "type": "function"
    },
    {
      "inputs": [
        {
          "internalType": "address",
          "name": "to",
          "type": "address"
        },
        {
          "internalType": "uint256",
          "name": "amount",
          "type": "uint256"
        }
      ],
      "name": "transfer",
      "outputs": [
        {
          "internalType": "bool",
          "name": "",
          "type": "bool"
        }
      ],
      "stateMutability": "nonpayable",
      "type": "function"
    },
    {
      "inputs": [
        {
          "internalType": "address",
          "name": "from",
          "type": "address"
        },
        {
          "internalType": "address",
          "name": "to",
          "type": "address"
        },
        {
          "internalType": "uint256",
          "name": "amount",
          "type": "uint256"
        }
      ],
      "name": "transferFrom",
      "outputs": [
        {
          "internalType": "bool",
          "name": "",
          "type": "bool"
        }
      ],
      "stateMutability": "nonpayable",
      "type": "function"
    },
    {
      "inputs": [
        {
          "internalType": "address",
          "name": "newImplementation",
          "type": "address"
        }
      ],
      "name": "upgradeTo",
      "outputs": [],
      "stateMutability": "nonpayable",
      "type": "function"
    },
    {
      "inputs": [
        {
          "internalType": "address",
          "name": "newImplementation",
          "type": "address"
        },
        {
          "internalType": "bytes",
          "name": "data",
          "type": "bytes"
        }
      ],
      "name": "upgradeToAndCall",
      "outputs": [],
      "stateMutability": "payable",
      "type": "function"
    }
  ],
  "transactionHash": "0x90933f94504c7eecadf1366ed15a2fa292066d0ba0d84f5bb8c5e24fc000eb97",
  "args": [],
  "numDeployments": 1,
  "solcInputHash": "81ad6dda1462a89b569be8ccbc215cae",
  "bytecode": "0x60a06040523073ffffffffffffffffffffffffffffffffffffffff1660809073ffffffffffffffffffffffffffffffffffffffff168152503480156200004457600080fd5b50620000556200005b60201b60201c565b62000205565b600060019054906101000a900460ff1615620000ae576040517f08c379a0000000000000000000000000000000000000000000000000000000008152600401620000a590620001a8565b60405180910390fd5b60ff801660008054906101000a900460ff1660ff16146200011f5760ff6000806101000a81548160ff021916908360ff1602179055507f7f26b83ff96e1f2b6a682f133852f6798a09c465da95921460cefb384740249860ff604051620001169190620001e8565b60405180910390a15b565b600082825260208201905092915050565b7f496e697469616c697a61626c653a20636f6e747261637420697320696e69746960008201527f616c697a696e6700000000000000000000000000000000000000000000000000602082015250565b60006200019060278362000121565b91506200019d8262000132565b604082019050919050565b60006020820190508181036000830152620001c38162000181565b9050919050565b600060ff82169050919050565b620001e281620001ca565b82525050565b6000602082019050620001ff6000830184620001d7565b92915050565b608051613a966200023d6000396000818161085a015281816108e801528181610a2d01528181610abb0152610b6b0152613a966000f3fe6080604052600436106101665760003560e01c80634f1ef286116100d157806395d89b411161008a578063a9059cbb11610064578063a9059cbb14610555578063d547741f14610592578063dd62ed3e146105bb578063f72c0d8b146105f857610166565b806395d89b41146104c2578063a217fddf146104ed578063a457c2d71461051857610166565b80634f1ef286146103c157806352d1902d146103dd57806370a082311461040857806379cc6790146104455780638129fc1c1461046e57806391d148541461048557610166565b80632f2ff15d116101235780632f2ff15d146102b5578063313ce567146102de57806336568abe146103095780633659cfe614610332578063395093511461035b57806342966c681461039857610166565b806301ffc9a71461016b57806306fdde03146101a8578063095ea7b3146101d357806318160ddd1461021057806323b872dd1461023b578063248a9ca314610278575b600080fd5b34801561017757600080fd5b50610192600480360381019061018d91906123cf565b610623565b60405161019f9190612417565b60405180910390f35b3480156101b457600080fd5b506101bd61069d565b6040516101ca91906124c2565b60405180910390f35b3480156101df57600080fd5b506101fa60048036038101906101f59190612578565b61072f565b6040516102079190612417565b60405180910390f35b34801561021c57600080fd5b50610225610752565b60405161023291906125c7565b60405180910390f35b34801561024757600080fd5b50610262600480360381019061025d91906125e2565b61075c565b60405161026f9190612417565b60405180910390f35b34801561028457600080fd5b5061029f600480360381019061029a919061266b565b61078b565b6040516102ac91906126a7565b60405180910390f35b3480156102c157600080fd5b506102dc60048036038101906102d791906126c2565b6107ab565b005b3480156102ea57600080fd5b506102f36107cc565b604051610300919061271e565b60405180910390f35b34801561031557600080fd5b50610330600480360381019061032b91906126c2565b6107d5565b005b34801561033e57600080fd5b5061035960048036038101906103549190612739565b610858565b005b34801561036757600080fd5b50610382600480360381019061037d9190612578565b6109e0565b60405161038f9190612417565b60405180910390f35b3480156103a457600080fd5b506103bf60048036038101906103ba9190612766565b610a17565b005b6103db60048036038101906103d691906128c8565b610a2b565b005b3480156103e957600080fd5b506103f2610b67565b6040516103ff91906126a7565b60405180910390f35b34801561041457600080fd5b5061042f600480360381019061042a9190612739565b610c20565b60405161043c91906125c7565b60405180910390f35b34801561045157600080fd5b5061046c60048036038101906104679190612578565b610c69565b005b34801561047a57600080fd5b50610483610c89565b005b34801561049157600080fd5b506104ac60048036038101906104a791906126c2565b610e82565b6040516104b99190612417565b60405180910390f35b3480156104ce57600080fd5b506104d7610eed565b6040516104e491906124c2565b60405180910390f35b3480156104f957600080fd5b50610502610f7f565b60405161050f91906126a7565b60405180910390f35b34801561052457600080fd5b5061053f600480360381019061053a9190612578565b610f86565b60405161054c9190612417565b60405180910390f35b34801561056157600080fd5b5061057c60048036038101906105779190612578565b610ffd565b6040516105899190612417565b60405180910390f35b34801561059e57600080fd5b506105b960048036038101906105b491906126c2565b611020565b005b3480156105c757600080fd5b506105e260048036038101906105dd9190612924565b611041565b6040516105ef91906125c7565b60405180910390f35b34801561060457600080fd5b5061060d6110c8565b60405161061a91906126a7565b60405180910390f35b60007f7965db0b000000000000000000000000000000000000000000000000000000007bffffffffffffffffffffffffffffffffffffffffffffffffffffffff1916827bffffffffffffffffffffffffffffffffffffffffffffffffffffffff191614806106965750610695826110ec565b5b9050919050565b6060603680546106ac90612993565b80601f01602080910402602001604051908101604052809291908181526020018280546106d890612993565b80156107255780601f106106fa57610100808354040283529160200191610725565b820191906000526020600020905b81548152906001019060200180831161070857829003601f168201915b5050505050905090565b60008061073a611156565b905061074781858561115e565b600191505092915050565b6000603554905090565b600080610767611156565b9050610774858285611327565b61077f8585856113b3565b60019150509392505050565b600060c96000838152602001908152602001600020600101549050919050565b6107b48261078b565b6107bd8161162c565b6107c78383611640565b505050565b60006012905090565b6107dd611156565b73ffffffffffffffffffffffffffffffffffffffff168173ffffffffffffffffffffffffffffffffffffffff161461084a576040517f08c379a000000000000000000000000000000000000000000000000000000000815260040161084190612a36565b60405180910390fd5b6108548282611721565b5050565b7f000000000000000000000000000000000000000000000000000000000000000073ffffffffffffffffffffffffffffffffffffffff163073ffffffffffffffffffffffffffffffffffffffff16036108e6576040517f08c379a00000000000000000000000000000000000000000000000000000000081526004016108dd90612ac8565b60405180910390fd5b7f000000000000000000000000000000000000000000000000000000000000000073ffffffffffffffffffffffffffffffffffffffff16610925611803565b73ffffffffffffffffffffffffffffffffffffffff161461097b576040517f08c379a000000000000000000000000000000000000000000000000000000000815260040161097290612b5a565b60405180910390fd5b6109848161185a565b6109dd81600067ffffffffffffffff8111156109a3576109a261279d565b5b6040519080825280601f01601f1916602001820160405280156109d55781602001600182028036833780820191505090505b506000611888565b50565b6000806109eb611156565b9050610a0c8185856109fd8589611041565b610a079190612ba9565b61115e565b600191505092915050565b610a28610a22611156565b826119f6565b50565b7f000000000000000000000000000000000000000000000000000000000000000073ffffffffffffffffffffffffffffffffffffffff163073ffffffffffffffffffffffffffffffffffffffff1603610ab9576040517f08c379a0000000000000000000000000000000000000000000000000000000008152600401610ab090612ac8565b60405180910390fd5b7f000000000000000000000000000000000000000000000000000000000000000073ffffffffffffffffffffffffffffffffffffffff16610af8611803565b73ffffffffffffffffffffffffffffffffffffffff1614610b4e576040517f08c379a0000000000000000000000000000000000000000000000000000000008152600401610b4590612b5a565b60405180910390fd5b610b578261185a565b610b6382826001611888565b5050565b60007f000000000000000000000000000000000000000000000000000000000000000073ffffffffffffffffffffffffffffffffffffffff163073ffffffffffffffffffffffffffffffffffffffff1614610bf7576040517f08c379a0000000000000000000000000000000000000000000000000000000008152600401610bee90612c4f565b60405180910390fd5b7f360894a13ba1a3210667c828492db98dca3e2076cc3735a920a3ca505d382bbc60001b905090565b6000603360008373ffffffffffffffffffffffffffffffffffffffff1673ffffffffffffffffffffffffffffffffffffffff168152602001908152602001600020549050919050565b610c7b82610c75611156565b83611327565b610c8582826119f6565b5050565b60008060019054906101000a900460ff16159050808015610cba5750600160008054906101000a900460ff1660ff16105b80610ce75750610cc930611bc5565b158015610ce65750600160008054906101000a900460ff1660ff16145b5b610d26576040517f08c379a0000000000000000000000000000000000000000000000000000000008152600401610d1d90612ce1565b60405180910390fd5b60016000806101000a81548160ff021916908360ff1602179055508015610d63576001600060016101000a81548160ff0219169083151502179055505b610dd76040518060400160405280600781526020017f4d79546f6b656e000000000000000000000000000000000000000000000000008152506040518060400160405280600581526020017f4552433230000000000000000000000000000000000000000000000000000000815250611be8565b610ddf611c45565b610de7611c96565b610def611ce7565b610dfc6000801b33611640565b610e267f189ab7a9244df0848122154315af71fe140f3db0fe014031783b0946b8c9d2e333611640565b8015610e7f5760008060016101000a81548160ff0219169083151502179055507f7f26b83ff96e1f2b6a682f133852f6798a09c465da95921460cefb38474024986001604051610e769190612d46565b60405180910390a15b50565b600060c9600084815260200190815260200160002060000160008373ffffffffffffffffffffffffffffffffffffffff1673ffffffffffffffffffffffffffffffffffffffff16815260200190815260200160002060009054906101000a900460ff16905092915050565b606060378054610efc90612993565b80601f0160208091040260200160405190810160405280929190818152602001828054610f2890612993565b8015610f755780601f10610f4a57610100808354040283529160200191610f75565b820191906000526020600020905b815481529060010190602001808311610f5857829003601f168201915b5050505050905090565b6000801b81565b600080610f91611156565b90506000610f9f8286611041565b905083811015610fe4576040517f08c379a0000000000000000000000000000000000000000000000000000000008152600401610fdb90612dd3565b60405180910390fd5b610ff1828686840361115e565b60019250505092915050565b600080611008611156565b90506110158185856113b3565b600191505092915050565b6110298261078b565b6110328161162c565b61103c8383611721565b505050565b6000603460008473ffffffffffffffffffffffffffffffffffffffff1673ffffffffffffffffffffffffffffffffffffffff16815260200190815260200160002060008373ffffffffffffffffffffffffffffffffffffffff1673ffffffffffffffffffffffffffffffffffffffff16815260200190815260200160002054905092915050565b7f189ab7a9244df0848122154315af71fe140f3db0fe014031783b0946b8c9d2e381565b60007f01ffc9a7000000000000000000000000000000000000000000000000000000007bffffffffffffffffffffffffffffffffffffffffffffffffffffffff1916827bffffffffffffffffffffffffffffffffffffffffffffffffffffffff1916149050919050565b600033905090565b600073ffffffffffffffffffffffffffffffffffffffff168373ffffffffffffffffffffffffffffffffffffffff16036111cd576040517f08c379a00000000000000000000000000000000000000000000000000000000081526004016111c490612e65565b60405180910390fd5b600073ffffffffffffffffffffffffffffffffffffffff168273ffffffffffffffffffffffffffffffffffffffff160361123c576040517f08c379a000000000000000000000000000000000000000000000000000000000815260040161123390612ef7565b60405180910390fd5b80603460008573ffffffffffffffffffffffffffffffffffffffff1673ffffffffffffffffffffffffffffffffffffffff16815260200190815260200160002060008473ffffffffffffffffffffffffffffffffffffffff1673ffffffffffffffffffffffffffffffffffffffff168152602001908152602001600020819055508173ffffffffffffffffffffffffffffffffffffffff168373ffffffffffffffffffffffffffffffffffffffff167f8c5be1e5ebec7d5bd14f71427d1e84f3dd0314c0f7b2291e5b200ac8c7c3b9258360405161131a91906125c7565b60405180910390a3505050565b60006113338484611041565b90507fffffffffffffffffffffffffffffffffffffffffffffffffffffffffffffffff81146113ad578181101561139f576040517f08c379a000000000000000000000000000000000000000000000000000000000815260040161139690612f63565b60405180910390fd5b6113ac848484840361115e565b5b50505050565b600073ffffffffffffffffffffffffffffffffffffffff168373ffffffffffffffffffffffffffffffffffffffff1603611422576040517f08c379a000000000000000000000000000000000000000000000000000000000815260040161141990612ff5565b60405180910390fd5b600073ffffffffffffffffffffffffffffffffffffffff168273ffffffffffffffffffffffffffffffffffffffff1603611491576040517f08c379a000000000000000000000000000000000000000000000000000000000815260040161148890613087565b60405180910390fd5b61149c838383611d38565b6000603360008573ffffffffffffffffffffffffffffffffffffffff1673ffffffffffffffffffffffffffffffffffffffff16815260200190815260200160002054905081811015611523576040517f08c379a000000000000000000000000000000000000000000000000000000000815260040161151a90613119565b60405180910390fd5b818103603360008673ffffffffffffffffffffffffffffffffffffffff1673ffffffffffffffffffffffffffffffffffffffff1681526020019081526020016000208190555081603360008573ffffffffffffffffffffffffffffffffffffffff1673ffffffffffffffffffffffffffffffffffffffff168152602001908152602001600020600082825401925050819055508273ffffffffffffffffffffffffffffffffffffffff168473ffffffffffffffffffffffffffffffffffffffff167fddf252ad1be2c89b69c2b068fc378daa952ba7f163c4a11628f55a4df523b3ef8460405161161391906125c7565b60405180910390a3611626848484611d3d565b50505050565b61163d81611638611156565b611d42565b50565b61164a8282610e82565b61171d57600160c9600084815260200190815260200160002060000160008373ffffffffffffffffffffffffffffffffffffffff1673ffffffffffffffffffffffffffffffffffffffff16815260200190815260200160002060006101000a81548160ff0219169083151502179055506116c2611156565b73ffffffffffffffffffffffffffffffffffffffff168173ffffffffffffffffffffffffffffffffffffffff16837f2f8788117e7eff1d82e926ec794901d17c78024a50270940304540a733656f0d60405160405180910390a45b5050565b61172b8282610e82565b156117ff57600060c9600084815260200190815260200160002060000160008373ffffffffffffffffffffffffffffffffffffffff1673ffffffffffffffffffffffffffffffffffffffff16815260200190815260200160002060006101000a81548160ff0219169083151502179055506117a4611156565b73ffffffffffffffffffffffffffffffffffffffff168173ffffffffffffffffffffffffffffffffffffffff16837ff6391f5c32d9c69d2a47ea670b442974b53935d1edc7fd64eb21e047a839171b60405160405180910390a45b5050565b60006118317f360894a13ba1a3210667c828492db98dca3e2076cc3735a920a3ca505d382bbc60001b611dc7565b60000160009054906101000a900473ffffffffffffffffffffffffffffffffffffffff16905090565b7f189ab7a9244df0848122154315af71fe140f3db0fe014031783b0946b8c9d2e36118848161162c565b5050565b6118b47f4910fdfa16fed3260ed0e7147f7cc6da11a60208b5b9406d12a635614ffd914360001b611dd1565b60000160009054906101000a900460ff16156118d8576118d383611ddb565b6119f1565b8273ffffffffffffffffffffffffffffffffffffffff166352d1902d6040518163ffffffff1660e01b8152600401602060405180830381865afa92505050801561194057506040513d601f19601f8201168201806040525081019061193d919061314e565b60015b61197f576040517f08c379a0000000000000000000000000000000000000000000000000000000008152600401611976906131ed565b60405180910390fd5b7f360894a13ba1a3210667c828492db98dca3e2076cc3735a920a3ca505d382bbc60001b81146119e4576040517f08c379a00000000000000000000000000000000000000000000000000000000081526004016119db9061327f565b60405180910390fd5b506119f0838383611e94565b5b505050565b600073ffffffffffffffffffffffffffffffffffffffff168273ffffffffffffffffffffffffffffffffffffffff1603611a65576040517f08c379a0000000000000000000000000000000000000000000000000000000008152600401611a5c90613311565b60405180910390fd5b611a7182600083611d38565b6000603360008473ffffffffffffffffffffffffffffffffffffffff1673ffffffffffffffffffffffffffffffffffffffff16815260200190815260200160002054905081811015611af8576040517f08c379a0000000000000000000000000000000000000000000000000000000008152600401611aef906133a3565b60405180910390fd5b818103603360008573ffffffffffffffffffffffffffffffffffffffff1673ffffffffffffffffffffffffffffffffffffffff1681526020019081526020016000208190555081603560008282540392505081905550600073ffffffffffffffffffffffffffffffffffffffff168373ffffffffffffffffffffffffffffffffffffffff167fddf252ad1be2c89b69c2b068fc378daa952ba7f163c4a11628f55a4df523b3ef84604051611bac91906125c7565b60405180910390a3611bc083600084611d3d565b505050565b6000808273ffffffffffffffffffffffffffffffffffffffff163b119050919050565b600060019054906101000a900460ff16611c37576040517f08c379a0000000000000000000000000000000000000000000000000000000008152600401611c2e90613435565b60405180910390fd5b611c418282611ec0565b5050565b600060019054906101000a900460ff16611c94576040517f08c379a0000000000000000000000000000000000000000000000000000000008152600401611c8b90613435565b60405180910390fd5b565b600060019054906101000a900460ff16611ce5576040517f08c379a0000000000000000000000000000000000000000000000000000000008152600401611cdc90613435565b60405180910390fd5b565b600060019054906101000a900460ff16611d36576040517f08c379a0000000000000000000000000000000000000000000000000000000008152600401611d2d90613435565b60405180910390fd5b565b505050565b505050565b611d4c8282610e82565b611dc357611d5981611f33565b611d678360001c6020611f60565b604051602001611d78929190613529565b6040516020818303038152906040526040517f08c379a0000000000000000000000000000000000000000000000000000000008152600401611dba91906124c2565b60405180910390fd5b5050565b6000819050919050565b6000819050919050565b611de481611bc5565b611e23576040517f08c379a0000000000000000000000000000000000000000000000000000000008152600401611e1a906135d5565b60405180910390fd5b80611e507f360894a13ba1a3210667c828492db98dca3e2076cc3735a920a3ca505d382bbc60001b611dc7565b60000160006101000a81548173ffffffffffffffffffffffffffffffffffffffff021916908373ffffffffffffffffffffffffffffffffffffffff16021790555050565b611e9d8361219c565b600082511180611eaa5750805b15611ebb57611eb983836121eb565b505b505050565b600060019054906101000a900460ff16611f0f576040517f08c379a0000000000000000000000000000000000000000000000000000000008152600401611f0690613435565b60405180910390fd5b8160369081611f1e9190613797565b508060379081611f2e9190613797565b505050565b6060611f598273ffffffffffffffffffffffffffffffffffffffff16601460ff16611f60565b9050919050565b606060006002836002611f739190613869565b611f7d9190612ba9565b67ffffffffffffffff811115611f9657611f9561279d565b5b6040519080825280601f01601f191660200182016040528015611fc85781602001600182028036833780820191505090505b5090507f30000000000000000000000000000000000000000000000000000000000000008160008151811061200057611fff6138ab565b5b60200101907effffffffffffffffffffffffffffffffffffffffffffffffffffffffffffff1916908160001a9053507f780000000000000000000000000000000000000000000000000000000000000081600181518110612064576120636138ab565b5b60200101907effffffffffffffffffffffffffffffffffffffffffffffffffffffffffffff1916908160001a905350600060018460026120a49190613869565b6120ae9190612ba9565b90505b600181111561214e577f3031323334353637383961626364656600000000000000000000000000000000600f8616601081106120f0576120ef6138ab565b5b1a60f81b828281518110612107576121066138ab565b5b60200101907effffffffffffffffffffffffffffffffffffffffffffffffffffffffffffff1916908160001a905350600485901c945080612147906138da565b90506120b1565b5060008414612192576040517f08c379a00000000000000000000000000000000000000000000000000000000081526004016121899061394f565b60405180910390fd5b8091505092915050565b6121a581611ddb565b8073ffffffffffffffffffffffffffffffffffffffff167fbc7cd75a20ee27fd9adebab32041f755214dbc6bffa90cc0225b39da2e5c2d3b60405160405180910390a250565b60606122108383604051806060016040528060278152602001613a3a60279139612218565b905092915050565b60606000808573ffffffffffffffffffffffffffffffffffffffff168560405161224291906139b6565b600060405180830381855af49150503d806000811461227d576040519150601f19603f3d011682016040523d82523d6000602084013e612282565b606091505b50915091506122938683838761229e565b925050509392505050565b606083156123005760008351036122f8576122b885611bc5565b6122f7576040517f08c379a00000000000000000000000000000000000000000000000000000000081526004016122ee90613a19565b60405180910390fd5b5b82905061230b565b61230a8383612313565b5b949350505050565b6000825111156123265781518083602001fd5b806040517f08c379a000000000000000000000000000000000000000000000000000000000815260040161235a91906124c2565b60405180910390fd5b6000604051905090565b600080fd5b600080fd5b60007fffffffff0000000000000000000000000000000000000000000000000000000082169050919050565b6123ac81612377565b81146123b757600080fd5b50565b6000813590506123c9816123a3565b92915050565b6000602082840312156123e5576123e461236d565b5b60006123f3848285016123ba565b91505092915050565b60008115159050919050565b612411816123fc565b82525050565b600060208201905061242c6000830184612408565b92915050565b600081519050919050565b600082825260208201905092915050565b60005b8381101561246c578082015181840152602081019050612451565b60008484015250505050565b6000601f19601f8301169050919050565b600061249482612432565b61249e818561243d565b93506124ae81856020860161244e565b6124b781612478565b840191505092915050565b600060208201905081810360008301526124dc8184612489565b905092915050565b600073ffffffffffffffffffffffffffffffffffffffff82169050919050565b600061250f826124e4565b9050919050565b61251f81612504565b811461252a57600080fd5b50565b60008135905061253c81612516565b92915050565b6000819050919050565b61255581612542565b811461256057600080fd5b50565b6000813590506125728161254c565b92915050565b6000806040838503121561258f5761258e61236d565b5b600061259d8582860161252d565b92505060206125ae85828601612563565b9150509250929050565b6125c181612542565b82525050565b60006020820190506125dc60008301846125b8565b92915050565b6000806000606084860312156125fb576125fa61236d565b5b60006126098682870161252d565b935050602061261a8682870161252d565b925050604061262b86828701612563565b9150509250925092565b6000819050919050565b61264881612635565b811461265357600080fd5b50565b6000813590506126658161263f565b92915050565b6000602082840312156126815761268061236d565b5b600061268f84828501612656565b91505092915050565b6126a181612635565b82525050565b60006020820190506126bc6000830184612698565b92915050565b600080604083850312156126d9576126d861236d565b5b60006126e785828601612656565b92505060206126f88582860161252d565b9150509250929050565b600060ff82169050919050565b61271881612702565b82525050565b6000602082019050612733600083018461270f565b92915050565b60006020828403121561274f5761274e61236d565b5b600061275d8482850161252d565b91505092915050565b60006020828403121561277c5761277b61236d565b5b600061278a84828501612563565b91505092915050565b600080fd5b600080fd5b7f4e487b7100000000000000000000000000000000000000000000000000000000600052604160045260246000fd5b6127d582612478565b810181811067ffffffffffffffff821117156127f4576127f361279d565b5b80604052505050565b6000612807612363565b905061281382826127cc565b919050565b600067ffffffffffffffff8211156128335761283261279d565b5b61283c82612478565b9050602081019050919050565b82818337600083830152505050565b600061286b61286684612818565b6127fd565b90508281526020810184848401111561288757612886612798565b5b612892848285612849565b509392505050565b600082601f8301126128af576128ae612793565b5b81356128bf848260208601612858565b91505092915050565b600080604083850312156128df576128de61236d565b5b60006128ed8582860161252d565b925050602083013567ffffffffffffffff81111561290e5761290d612372565b5b61291a8582860161289a565b9150509250929050565b6000806040838503121561293b5761293a61236d565b5b60006129498582860161252d565b925050602061295a8582860161252d565b9150509250929050565b7f4e487b7100000000000000000000000000000000000000000000000000000000600052602260045260246000fd5b600060028204905060018216806129ab57607f821691505b6020821081036129be576129bd612964565b5b50919050565b7f416363657373436f6e74726f6c3a2063616e206f6e6c792072656e6f756e636560008201527f20726f6c657320666f722073656c660000000000000000000000000000000000602082015250565b6000612a20602f8361243d565b9150612a2b826129c4565b604082019050919050565b60006020820190508181036000830152612a4f81612a13565b9050919050565b7f46756e6374696f6e206d7573742062652063616c6c6564207468726f7567682060008201527f64656c656761746563616c6c0000000000000000000000000000000000000000602082015250565b6000612ab2602c8361243d565b9150612abd82612a56565b604082019050919050565b60006020820190508181036000830152612ae181612aa5565b9050919050565b7f46756e6374696f6e206d7573742062652063616c6c6564207468726f7567682060008201527f6163746976652070726f78790000000000000000000000000000000000000000602082015250565b6000612b44602c8361243d565b9150612b4f82612ae8565b604082019050919050565b60006020820190508181036000830152612b7381612b37565b9050919050565b7f4e487b7100000000000000000000000000000000000000000000000000000000600052601160045260246000fd5b6000612bb482612542565b9150612bbf83612542565b9250828201905080821115612bd757612bd6612b7a565b5b92915050565b7f555550535570677261646561626c653a206d757374206e6f742062652063616c60008201527f6c6564207468726f7567682064656c656761746563616c6c0000000000000000602082015250565b6000612c3960388361243d565b9150612c4482612bdd565b604082019050919050565b60006020820190508181036000830152612c6881612c2c565b9050919050565b7f496e697469616c697a61626c653a20636f6e747261637420697320616c72656160008201527f647920696e697469616c697a6564000000000000000000000000000000000000602082015250565b6000612ccb602e8361243d565b9150612cd682612c6f565b604082019050919050565b60006020820190508181036000830152612cfa81612cbe565b9050919050565b6000819050919050565b6000819050919050565b6000612d30612d2b612d2684612d01565b612d0b565b612702565b9050919050565b612d4081612d15565b82525050565b6000602082019050612d5b6000830184612d37565b92915050565b7f45524332303a2064656372656173656420616c6c6f77616e63652062656c6f7760008201527f207a65726f000000000000000000000000000000000000000000000000000000602082015250565b6000612dbd60258361243d565b9150612dc882612d61565b604082019050919050565b60006020820190508181036000830152612dec81612db0565b9050919050565b7f45524332303a20617070726f76652066726f6d20746865207a65726f2061646460008201527f7265737300000000000000000000000000000000000000000000000000000000602082015250565b6000612e4f60248361243d565b9150612e5a82612df3565b604082019050919050565b60006020820190508181036000830152612e7e81612e42565b9050919050565b7f45524332303a20617070726f766520746f20746865207a65726f20616464726560008201527f7373000000000000000000000000000000000000000000000000000000000000602082015250565b6000612ee160228361243d565b9150612eec82612e85565b604082019050919050565b60006020820190508181036000830152612f1081612ed4565b9050919050565b7f45524332303a20696e73756666696369656e7420616c6c6f77616e6365000000600082015250565b6000612f4d601d8361243d565b9150612f5882612f17565b602082019050919050565b60006020820190508181036000830152612f7c81612f40565b9050919050565b7f45524332303a207472616e736665722066726f6d20746865207a65726f20616460008201527f6472657373000000000000000000000000000000000000000000000000000000602082015250565b6000612fdf60258361243d565b9150612fea82612f83565b604082019050919050565b6000602082019050818103600083015261300e81612fd2565b9050919050565b7f45524332303a207472616e7366657220746f20746865207a65726f206164647260008201527f6573730000000000000000000000000000000000000000000000000000000000602082015250565b600061307160238361243d565b915061307c82613015565b604082019050919050565b600060208201905081810360008301526130a081613064565b9050919050565b7f45524332303a207472616e7366657220616d6f756e742065786365656473206260008201527f616c616e63650000000000000000000000000000000000000000000000000000602082015250565b600061310360268361243d565b915061310e826130a7565b604082019050919050565b60006020820190508181036000830152613132816130f6565b9050919050565b6000815190506131488161263f565b92915050565b6000602082840312156131645761316361236d565b5b600061317284828501613139565b91505092915050565b7f45524331393637557067726164653a206e657720696d706c656d656e7461746960008201527f6f6e206973206e6f742055555053000000000000000000000000000000000000602082015250565b60006131d7602e8361243d565b91506131e28261317b565b604082019050919050565b60006020820190508181036000830152613206816131ca565b9050919050565b7f45524331393637557067726164653a20756e737570706f727465642070726f7860008201527f6961626c65555549440000000000000000000000000000000000000000000000602082015250565b600061326960298361243d565b91506132748261320d565b604082019050919050565b600060208201905081810360008301526132988161325c565b9050919050565b7f45524332303a206275726e2066726f6d20746865207a65726f2061646472657360008201527f7300000000000000000000000000000000000000000000000000000000000000602082015250565b60006132fb60218361243d565b91506133068261329f565b604082019050919050565b6000602082019050818103600083015261332a816132ee565b9050919050565b7f45524332303a206275726e20616d6f756e7420657863656564732062616c616e60008201527f6365000000000000000000000000000000000000000000000000000000000000602082015250565b600061338d60228361243d565b915061339882613331565b604082019050919050565b600060208201905081810360008301526133bc81613380565b9050919050565b7f496e697469616c697a61626c653a20636f6e7472616374206973206e6f74206960008201527f6e697469616c697a696e67000000000000000000000000000000000000000000602082015250565b600061341f602b8361243d565b915061342a826133c3565b604082019050919050565b6000602082019050818103600083015261344e81613412565b9050919050565b600081905092915050565b7f416363657373436f6e74726f6c3a206163636f756e7420000000000000000000600082015250565b6000613496601783613455565b91506134a182613460565b601782019050919050565b60006134b782612432565b6134c18185613455565b93506134d181856020860161244e565b80840191505092915050565b7f206973206d697373696e6720726f6c6520000000000000000000000000000000600082015250565b6000613513601183613455565b915061351e826134dd565b601182019050919050565b600061353482613489565b915061354082856134ac565b915061354b82613506565b915061355782846134ac565b91508190509392505050565b7f455243313936373a206e657720696d706c656d656e746174696f6e206973206e60008201527f6f74206120636f6e747261637400000000000000000000000000000000000000602082015250565b60006135bf602d8361243d565b91506135ca82613563565b604082019050919050565b600060208201905081810360008301526135ee816135b2565b9050919050565b60008190508160005260206000209050919050565b60006020601f8301049050919050565b600082821b905092915050565b6000600883026136577fffffffffffffffffffffffffffffffffffffffffffffffffffffffffffffffff8261361a565b613661868361361a565b95508019841693508086168417925050509392505050565b600061369461368f61368a84612542565b612d0b565b612542565b9050919050565b6000819050919050565b6136ae83613679565b6136c26136ba8261369b565b848454613627565b825550505050565b600090565b6136d76136ca565b6136e28184846136a5565b505050565b5b81811015613706576136fb6000826136cf565b6001810190506136e8565b5050565b601f82111561374b5761371c816135f5565b6137258461360a565b81016020851015613734578190505b6137486137408561360a565b8301826136e7565b50505b505050565b600082821c905092915050565b600061376e60001984600802613750565b1980831691505092915050565b6000613787838361375d565b9150826002028217905092915050565b6137a082612432565b67ffffffffffffffff8111156137b9576137b861279d565b5b6137c38254612993565b6137ce82828561370a565b600060209050601f83116001811461380157600084156137ef578287015190505b6137f9858261377b565b865550613861565b601f19841661380f866135f5565b60005b8281101561383757848901518255600182019150602085019450602081019050613812565b868310156138545784890151613850601f89168261375d565b8355505b6001600288020188555050505b505050505050565b600061387482612542565b915061387f83612542565b925082820261388d81612542565b915082820484148315176138a4576138a3612b7a565b5b5092915050565b7f4e487b7100000000000000000000000000000000000000000000000000000000600052603260045260246000fd5b60006138e582612542565b9150600082036138f8576138f7612b7a565b5b600182039050919050565b7f537472696e67733a20686578206c656e67746820696e73756666696369656e74600082015250565b600061393960208361243d565b915061394482613903565b602082019050919050565b600060208201905081810360008301526139688161392c565b9050919050565b600081519050919050565b600081905092915050565b60006139908261396f565b61399a818561397a565b93506139aa81856020860161244e565b80840191505092915050565b60006139c28284613985565b915081905092915050565b7f416464726573733a2063616c6c20746f206e6f6e2d636f6e7472616374000000600082015250565b6000613a03601d8361243d565b9150613a0e826139cd565b602082019050919050565b60006020820190508181036000830152613a32816139f6565b905091905056fe416464726573733a206c6f772d6c6576656c2064656c65676174652063616c6c206661696c6564a264697066735822122056dd721dedd82b5ab2cdf461e0646cfaccbac5e6ece42236f8cdc020b8de6fde64736f6c63430008130033",
  "libraries": {},
  "devdoc": {
    "events": {
      "AdminChanged(address,address)": {
        "details": "Emitted when the admin account has changed."
      },
      "Approval(address,address,uint256)": {
        "details": "Emitted when the allowance of a `spender` for an `owner` is set by a call to {approve}. `value` is the new allowance."
      },
      "BeaconUpgraded(address)": {
        "details": "Emitted when the beacon is changed."
      },
      "Initialized(uint8)": {
        "details": "Triggered when the contract has been initialized or reinitialized."
      },
      "RoleAdminChanged(bytes32,bytes32,bytes32)": {
        "details": "Emitted when `newAdminRole` is set as ``role``'s admin role, replacing `previousAdminRole` `DEFAULT_ADMIN_ROLE` is the starting admin for all roles, despite {RoleAdminChanged} not being emitted signaling this. _Available since v3.1._"
      },
      "RoleGranted(bytes32,address,address)": {
        "details": "Emitted when `account` is granted `role`. `sender` is the account that originated the contract call, an admin role bearer except when using {AccessControl-_setupRole}."
      },
      "RoleRevoked(bytes32,address,address)": {
        "details": "Emitted when `account` is revoked `role`. `sender` is the account that originated the contract call:   - if using `revokeRole`, it is the admin role bearer   - if using `renounceRole`, it is the role bearer (i.e. `account`)"
      },
      "Transfer(address,address,uint256)": {
        "details": "Emitted when `value` tokens are moved from one account (`from`) to another (`to`). Note that `value` may be zero."
      },
      "Upgraded(address)": {
        "details": "Emitted when the implementation is upgraded."
      }
    },
    "kind": "dev",
    "methods": {
      "allowance(address,address)": {
        "details": "See {IERC20-allowance}."
      },
      "approve(address,uint256)": {
        "details": "See {IERC20-approve}. NOTE: If `amount` is the maximum `uint256`, the allowance is not updated on `transferFrom`. This is semantically equivalent to an infinite approval. Requirements: - `spender` cannot be the zero address."
      },
      "balanceOf(address)": {
        "details": "See {IERC20-balanceOf}."
      },
      "burn(uint256)": {
        "details": "Destroys `amount` tokens from the caller. See {ERC20-_burn}."
      },
      "burnFrom(address,uint256)": {
        "details": "Destroys `amount` tokens from `account`, deducting from the caller's allowance. See {ERC20-_burn} and {ERC20-allowance}. Requirements: - the caller must have allowance for ``accounts``'s tokens of at least `amount`."
      },
      "constructor": {
        "custom:oz-upgrades-unsafe-allow": "constructor"
      },
      "decimals()": {
        "details": "Returns the number of decimals used to get its user representation. For example, if `decimals` equals `2`, a balance of `505` tokens should be displayed to a user as `5.05` (`505 / 10 ** 2`). Tokens usually opt for a value of 18, imitating the relationship between Ether and Wei. This is the default value returned by this function, unless it's overridden. NOTE: This information is only used for _display_ purposes: it in no way affects any of the arithmetic of the contract, including {IERC20-balanceOf} and {IERC20-transfer}."
      },
      "decreaseAllowance(address,uint256)": {
        "details": "Atomically decreases the allowance granted to `spender` by the caller. This is an alternative to {approve} that can be used as a mitigation for problems described in {IERC20-approve}. Emits an {Approval} event indicating the updated allowance. Requirements: - `spender` cannot be the zero address. - `spender` must have allowance for the caller of at least `subtractedValue`."
      },
      "getRoleAdmin(bytes32)": {
        "details": "Returns the admin role that controls `role`. See {grantRole} and {revokeRole}. To change a role's admin, use {_setRoleAdmin}."
      },
      "grantRole(bytes32,address)": {
        "details": "Grants `role` to `account`. If `account` had not been already granted `role`, emits a {RoleGranted} event. Requirements: - the caller must have ``role``'s admin role. May emit a {RoleGranted} event."
      },
      "hasRole(bytes32,address)": {
        "details": "Returns `true` if `account` has been granted `role`."
      },
      "increaseAllowance(address,uint256)": {
        "details": "Atomically increases the allowance granted to `spender` by the caller. This is an alternative to {approve} that can be used as a mitigation for problems described in {IERC20-approve}. Emits an {Approval} event indicating the updated allowance. Requirements: - `spender` cannot be the zero address."
      },
      "name()": {
        "details": "Returns the name of the token."
      },
      "proxiableUUID()": {
        "details": "Implementation of the ERC1822 {proxiableUUID} function. This returns the storage slot used by the implementation. It is used to validate the implementation's compatibility when performing an upgrade. IMPORTANT: A proxy pointing at a proxiable contract should not be considered proxiable itself, because this risks bricking a proxy that upgrades to it, by delegating to itself until out of gas. Thus it is critical that this function revert if invoked through a proxy. This is guaranteed by the `notDelegated` modifier."
      },
      "renounceRole(bytes32,address)": {
        "details": "Revokes `role` from the calling account. Roles are often managed via {grantRole} and {revokeRole}: this function's purpose is to provide a mechanism for accounts to lose their privileges if they are compromised (such as when a trusted device is misplaced). If the calling account had been revoked `role`, emits a {RoleRevoked} event. Requirements: - the caller must be `account`. May emit a {RoleRevoked} event."
      },
      "revokeRole(bytes32,address)": {
        "details": "Revokes `role` from `account`. If `account` had been granted `role`, emits a {RoleRevoked} event. Requirements: - the caller must have ``role``'s admin role. May emit a {RoleRevoked} event."
      },
      "supportsInterface(bytes4)": {
        "details": "See {IERC165-supportsInterface}."
      },
      "symbol()": {
        "details": "Returns the symbol of the token, usually a shorter version of the name."
      },
      "totalSupply()": {
        "details": "See {IERC20-totalSupply}."
      },
      "transfer(address,uint256)": {
        "details": "See {IERC20-transfer}. Requirements: - `to` cannot be the zero address. - the caller must have a balance of at least `amount`."
      },
      "transferFrom(address,address,uint256)": {
        "details": "See {IERC20-transferFrom}. Emits an {Approval} event indicating the updated allowance. This is not required by the EIP. See the note at the beginning of {ERC20}. NOTE: Does not update the allowance if the current allowance is the maximum `uint256`. Requirements: - `from` and `to` cannot be the zero address. - `from` must have a balance of at least `amount`. - the caller must have allowance for ``from``'s tokens of at least `amount`."
      },
      "upgradeTo(address)": {
        "custom:oz-upgrades-unsafe-allow-reachable": "delegatecall",
        "details": "Upgrade the implementation of the proxy to `newImplementation`. Calls {_authorizeUpgrade}. Emits an {Upgraded} event."
      },
      "upgradeToAndCall(address,bytes)": {
        "custom:oz-upgrades-unsafe-allow-reachable": "delegatecall",
        "details": "Upgrade the implementation of the proxy to `newImplementation`, and subsequently execute the function call encoded in `data`. Calls {_authorizeUpgrade}. Emits an {Upgraded} event."
      }
    },
    "version": 1
  },
  "userdoc": {
    "kind": "user",
    "methods": {},
    "version": 1
  },
  "storageLayout": {
    "storage": [
      {
        "astId": 782,
        "contract": "contracts/MyTokenUpgradeable.sol:MyTokenUpgradeable",
        "label": "_initialized",
        "offset": 0,
        "slot": "0",
        "type": "t_uint8"
      },
      {
        "astId": 785,
        "contract": "contracts/MyTokenUpgradeable.sol:MyTokenUpgradeable",
        "label": "_initializing",
        "offset": 1,
        "slot": "0",
        "type": "t_bool"
      },
      {
        "astId": 2242,
        "contract": "contracts/MyTokenUpgradeable.sol:MyTokenUpgradeable",
        "label": "__gap",
        "offset": 0,
        "slot": "1",
        "type": "t_array(t_uint256)50_storage"
      },
      {
        "astId": 1101,
        "contract": "contracts/MyTokenUpgradeable.sol:MyTokenUpgradeable",
        "label": "_balances",
        "offset": 0,
        "slot": "51",
        "type": "t_mapping(t_address,t_uint256)"
      },
      {
        "astId": 1107,
        "contract": "contracts/MyTokenUpgradeable.sol:MyTokenUpgradeable",
        "label": "_allowances",
        "offset": 0,
        "slot": "52",
        "type": "t_mapping(t_address,t_mapping(t_address,t_uint256))"
      },
      {
        "astId": 1109,
        "contract": "contracts/MyTokenUpgradeable.sol:MyTokenUpgradeable",
        "label": "_totalSupply",
        "offset": 0,
        "slot": "53",
        "type": "t_uint256"
      },
      {
        "astId": 1111,
        "contract": "contracts/MyTokenUpgradeable.sol:MyTokenUpgradeable",
        "label": "_name",
        "offset": 0,
        "slot": "54",
        "type": "t_string_storage"
      },
      {
        "astId": 1113,
        "contract": "contracts/MyTokenUpgradeable.sol:MyTokenUpgradeable",
        "label": "_symbol",
        "offset": 0,
        "slot": "55",
        "type": "t_string_storage"
      },
      {
        "astId": 1693,
        "contract": "contracts/MyTokenUpgradeable.sol:MyTokenUpgradeable",
        "label": "__gap",
        "offset": 0,
        "slot": "56",
        "type": "t_array(t_uint256)45_storage"
      },
      {
        "astId": 1836,
        "contract": "contracts/MyTokenUpgradeable.sol:MyTokenUpgradeable",
        "label": "__gap",
        "offset": 0,
        "slot": "101",
        "type": "t_array(t_uint256)50_storage"
      },
      {
        "astId": 2626,
        "contract": "contracts/MyTokenUpgradeable.sol:MyTokenUpgradeable",
        "label": "__gap",
        "offset": 0,
        "slot": "151",
        "type": "t_array(t_uint256)50_storage"
      },
      {
        "astId": 28,
        "contract": "contracts/MyTokenUpgradeable.sol:MyTokenUpgradeable",
        "label": "_roles",
        "offset": 0,
        "slot": "201",
        "type": "t_mapping(t_bytes32,t_struct(RoleData)23_storage)"
      },
      {
        "astId": 335,
        "contract": "contracts/MyTokenUpgradeable.sol:MyTokenUpgradeable",
        "label": "__gap",
        "offset": 0,
        "slot": "202",
        "type": "t_array(t_uint256)49_storage"
      },
      {
        "astId": 764,
        "contract": "contracts/MyTokenUpgradeable.sol:MyTokenUpgradeable",
        "label": "__gap",
        "offset": 0,
        "slot": "251",
        "type": "t_array(t_uint256)50_storage"
      },
      {
        "astId": 1080,
        "contract": "contracts/MyTokenUpgradeable.sol:MyTokenUpgradeable",
        "label": "__gap",
        "offset": 0,
        "slot": "301",
        "type": "t_array(t_uint256)50_storage"
      }
    ],
    "types": {
      "t_address": {
        "encoding": "inplace",
        "label": "address",
        "numberOfBytes": "20"
      },
      "t_array(t_uint256)45_storage": {
        "base": "t_uint256",
        "encoding": "inplace",
        "label": "uint256[45]",
        "numberOfBytes": "1440"
      },
      "t_array(t_uint256)49_storage": {
        "base": "t_uint256",
        "encoding": "inplace",
        "label": "uint256[49]",
        "numberOfBytes": "1568"
      },
      "t_array(t_uint256)50_storage": {
        "base": "t_uint256",
        "encoding": "inplace",
        "label": "uint256[50]",
        "numberOfBytes": "1600"
      },
      "t_bool": {
        "encoding": "inplace",
        "label": "bool",
        "numberOfBytes": "1"
      },
      "t_bytes32": {
        "encoding": "inplace",
        "label": "bytes32",
        "numberOfBytes": "32"
      },
      "t_mapping(t_address,t_bool)": {
        "encoding": "mapping",
        "key": "t_address",
        "label": "mapping(address => bool)",
        "numberOfBytes": "32",
        "value": "t_bool"
      },
      "t_mapping(t_address,t_mapping(t_address,t_uint256))": {
        "encoding": "mapping",
        "key": "t_address",
        "label": "mapping(address => mapping(address => uint256))",
        "numberOfBytes": "32",
        "value": "t_mapping(t_address,t_uint256)"
      },
      "t_mapping(t_address,t_uint256)": {
        "encoding": "mapping",
        "key": "t_address",
        "label": "mapping(address => uint256)",
        "numberOfBytes": "32",
        "value": "t_uint256"
      },
      "t_mapping(t_bytes32,t_struct(RoleData)23_storage)": {
        "encoding": "mapping",
        "key": "t_bytes32",
        "label": "mapping(bytes32 => struct AccessControlUpgradeable.RoleData)",
        "numberOfBytes": "32",
        "value": "t_struct(RoleData)23_storage"
      },
      "t_string_storage": {
        "encoding": "bytes",
        "label": "string",
        "numberOfBytes": "32"
      },
      "t_struct(RoleData)23_storage": {
        "encoding": "inplace",
        "label": "struct AccessControlUpgradeable.RoleData",
        "members": [
          {
            "astId": 20,
            "contract": "contracts/MyTokenUpgradeable.sol:MyTokenUpgradeable",
            "label": "members",
            "offset": 0,
            "slot": "0",
            "type": "t_mapping(t_address,t_bool)"
          },
          {
            "astId": 22,
            "contract": "contracts/MyTokenUpgradeable.sol:MyTokenUpgradeable",
            "label": "adminRole",
            "offset": 0,
            "slot": "1",
            "type": "t_bytes32"
          }
        ],
        "numberOfBytes": "64"
      },
      "t_uint256": {
        "encoding": "inplace",
        "label": "uint256",
        "numberOfBytes": "32"
      },
      "t_uint8": {
        "encoding": "inplace",
        "label": "uint8",
        "numberOfBytes": "1"
      }
    }
  }
}